{
	"data": {
		"bytecode": {
			"linkReferences": {},
			"object": "608060405234801561000f575f80fd5b506113728061001d5f395ff3fe608060405234801561000f575f80fd5b506004361061007b575f3560e01c80636057361d116100595780636057361d146100d85780636be0d6bf146100f45780636f760f41146101125780638bab8dd51461012e5761007b565b80631dda65411461007f5780632e64cec1146100895780632ebce631146100a7575b5f80fd5b61008761015e565b005b6100916101c5565b60405161009e9190610386565b60405180910390f35b6100c160048036038101906100bc91906103da565b6101cd565b6040516100cf92919061048f565b60405180910390f35b6100f260048036038101906100ed91906103da565b610282565b005b6100fc61028b565b6040516101099190610537565b60405180910390f35b61012c6004803603810190610127919061067c565b6102b0565b005b610148600480360381019061014391906106d6565b610334565b6040516101559190610386565b60405180910390f35b60405161016a90610361565b604051809103905ff080158015610183573d5f803e3d5ffd5b5060035f6101000a81548173ffffffffffffffffffffffffffffffffffffffff021916908373ffffffffffffffffffffffffffffffffffffffff160217905550565b5f8054905090565b600181815481106101dc575f80fd5b905f5260205f2090600202015f91509050805f0154908060010180546102019061074a565b80601f016020809104026020016040519081016040528092919081815260200182805461022d9061074a565b80156102785780601f1061024f57610100808354040283529160200191610278565b820191905f5260205f20905b81548152906001019060200180831161025b57829003601f168201915b5050505050905082565b805f8190555050565b60035f9054906101000a900473ffffffffffffffffffffffffffffffffffffffff1681565b6001604051806040016040528083815260200184815250908060018154018082558091505060019003905f5260205f2090600202015f909190919091505f820151815f0155602082015181600101908161030a919061090e565b5050508060028360405161031e9190610a17565b9081526020016040518091039020819055505050565b6002818051602081018201805184825260208301602085012081835280955050505050505f915090505481565b61090f80610a2e83390190565b5f819050919050565b6103808161036e565b82525050565b5f6020820190506103995f830184610377565b92915050565b5f604051905090565b5f80fd5b5f80fd5b6103b98161036e565b81146103c3575f80fd5b50565b5f813590506103d4816103b0565b92915050565b5f602082840312156103ef576103ee6103a8565b5b5f6103fc848285016103c6565b91505092915050565b5f81519050919050565b5f82825260208201905092915050565b5f5b8381101561043c578082015181840152602081019050610421565b5f8484015250505050565b5f601f19601f8301169050919050565b5f61046182610405565b61046b818561040f565b935061047b81856020860161041f565b61048481610447565b840191505092915050565b5f6040820190506104a25f830185610377565b81810360208301526104b48184610457565b90509392505050565b5f73ffffffffffffffffffffffffffffffffffffffff82169050919050565b5f819050919050565b5f6104ff6104fa6104f5846104bd565b6104dc565b6104bd565b9050919050565b5f610510826104e5565b9050919050565b5f61052182610506565b9050919050565b61053181610517565b82525050565b5f60208201905061054a5f830184610528565b92915050565b5f80fd5b5f80fd5b7f4e487b71000000000000000000000000000000000000000000000000000000005f52604160045260245ffd5b61058e82610447565b810181811067ffffffffffffffff821117156105ad576105ac610558565b5b80604052505050565b5f6105bf61039f565b90506105cb8282610585565b919050565b5f67ffffffffffffffff8211156105ea576105e9610558565b5b6105f382610447565b9050602081019050919050565b828183375f83830152505050565b5f61062061061b846105d0565b6105b6565b90508281526020810184848401111561063c5761063b610554565b5b610647848285610600565b509392505050565b5f82601f83011261066357610662610550565b5b813561067384826020860161060e565b91505092915050565b5f8060408385031215610692576106916103a8565b5b5f83013567ffffffffffffffff8111156106af576106ae6103ac565b5b6106bb8582860161064f565b92505060206106cc858286016103c6565b9150509250929050565b5f602082840312156106eb576106ea6103a8565b5b5f82013567ffffffffffffffff811115610708576107076103ac565b5b6107148482850161064f565b91505092915050565b7f4e487b71000000000000000000000000000000000000000000000000000000005f52602260045260245ffd5b5f600282049050600182168061076157607f821691505b6020821081036107745761077361071d565b5b50919050565b5f819050815f5260205f209050919050565b5f6020601f8301049050919050565b5f82821b905092915050565b5f600883026107d67fffffffffffffffffffffffffffffffffffffffffffffffffffffffffffffffff8261079b565b6107e0868361079b565b95508019841693508086168417925050509392505050565b5f61081261080d6108088461036e565b6104dc565b61036e565b9050919050565b5f819050919050565b61082b836107f8565b61083f61083782610819565b8484546107a7565b825550505050565b5f90565b610853610847565b61085e818484610822565b505050565b5b81811015610881576108765f8261084b565b600181019050610864565b5050565b601f8211156108c6576108978161077a565b6108a08461078c565b810160208510156108af578190505b6108c36108bb8561078c565b830182610863565b50505b505050565b5f82821c905092915050565b5f6108e65f19846008026108cb565b1980831691505092915050565b5f6108fe83836108d7565b9150826002028217905092915050565b61091782610405565b67ffffffffffffffff8111156109305761092f610558565b5b61093a825461074a565b610945828285610885565b5f60209050601f831160018114610976575f8415610964578287015190505b61096e85826108f3565b8655506109d5565b601f1984166109848661077a565b5f5b828110156109ab57848901518255600182019150602085019450602081019050610986565b868310156109c857848901516109c4601f8916826108d7565b8355505b6001600288020188555050505b505050505050565b5f81905092915050565b5f6109f182610405565b6109fb81856109dd565b9350610a0b81856020860161041f565b80840191505092915050565b5f610a2282846109e7565b91508190509291505056fe608060405234801561000f575f80fd5b506108f28061001d5f395ff3fe608060405234801561000f575f80fd5b5060043610610055575f3560e01c80632e64cec1146100595780632ebce631146100775780636057361d146100a85780636f760f41146100c45780638bab8dd5146100e0575b5f80fd5b610061610110565b60405161006e919061029f565b60405180910390f35b610091600480360381019061008c91906102f3565b610118565b60405161009f9291906103a8565b60405180910390f35b6100c260048036038101906100bd91906102f3565b6101cd565b005b6100de60048036038101906100d99190610502565b6101d6565b005b6100fa60048036038101906100f5919061055c565b61025a565b604051610107919061029f565b60405180910390f35b5f8054905090565b60018181548110610127575f80fd5b905f5260205f2090600202015f91509050805f01549080600101805461014c906105d0565b80601f0160208091040260200160405190810160405280929190818152602001828054610178906105d0565b80156101c35780601f1061019a576101008083540402835291602001916101c3565b820191905f5260205f20905b8154815290600101906020018083116101a657829003601f168201915b5050505050905082565b805f8190555050565b6001604051806040016040528083815260200184815250908060018154018082558091505060019003905f5260205f2090600202015f909190919091505f820151815f01556020820151816001019081610230919061079d565b5050508060028360405161024491906108a6565b9081526020016040518091039020819055505050565b6002818051602081018201805184825260208301602085012081835280955050505050505f915090505481565b5f819050919050565b61029981610287565b82525050565b5f6020820190506102b25f830184610290565b92915050565b5f604051905090565b5f80fd5b5f80fd5b6102d281610287565b81146102dc575f80fd5b50565b5f813590506102ed816102c9565b92915050565b5f60208284031215610308576103076102c1565b5b5f610315848285016102df565b91505092915050565b5f81519050919050565b5f82825260208201905092915050565b5f5b8381101561035557808201518184015260208101905061033a565b5f8484015250505050565b5f601f19601f8301169050919050565b5f61037a8261031e565b6103848185610328565b9350610394818560208601610338565b61039d81610360565b840191505092915050565b5f6040820190506103bb5f830185610290565b81810360208301526103cd8184610370565b90509392505050565b5f80fd5b5f80fd5b7f4e487b71000000000000000000000000000000000000000000000000000000005f52604160045260245ffd5b61041482610360565b810181811067ffffffffffffffff82111715610433576104326103de565b5b80604052505050565b5f6104456102b8565b9050610451828261040b565b919050565b5f67ffffffffffffffff8211156104705761046f6103de565b5b61047982610360565b9050602081019050919050565b828183375f83830152505050565b5f6104a66104a184610456565b61043c565b9050828152602081018484840111156104c2576104c16103da565b5b6104cd848285610486565b509392505050565b5f82601f8301126104e9576104e86103d6565b5b81356104f9848260208601610494565b91505092915050565b5f8060408385031215610518576105176102c1565b5b5f83013567ffffffffffffffff811115610535576105346102c5565b5b610541858286016104d5565b9250506020610552858286016102df565b9150509250929050565b5f60208284031215610571576105706102c1565b5b5f82013567ffffffffffffffff81111561058e5761058d6102c5565b5b61059a848285016104d5565b91505092915050565b7f4e487b71000000000000000000000000000000000000000000000000000000005f52602260045260245ffd5b5f60028204905060018216806105e757607f821691505b6020821081036105fa576105f96105a3565b5b50919050565b5f819050815f5260205f209050919050565b5f6020601f8301049050919050565b5f82821b905092915050565b5f6008830261065c7fffffffffffffffffffffffffffffffffffffffffffffffffffffffffffffffff82610621565b6106668683610621565b95508019841693508086168417925050509392505050565b5f819050919050565b5f6106a161069c61069784610287565b61067e565b610287565b9050919050565b5f819050919050565b6106ba83610687565b6106ce6106c6826106a8565b84845461062d565b825550505050565b5f90565b6106e26106d6565b6106ed8184846106b1565b505050565b5b81811015610710576107055f826106da565b6001810190506106f3565b5050565b601f8211156107555761072681610600565b61072f84610612565b8101602085101561073e578190505b61075261074a85610612565b8301826106f2565b50505b505050565b5f82821c905092915050565b5f6107755f198460080261075a565b1980831691505092915050565b5f61078d8383610766565b9150826002028217905092915050565b6107a68261031e565b67ffffffffffffffff8111156107bf576107be6103de565b5b6107c982546105d0565b6107d4828285610714565b5f60209050601f831160018114610805575f84156107f3578287015190505b6107fd8582610782565b865550610864565b601f19841661081386610600565b5f5b8281101561083a57848901518255600182019150602085019450602081019050610815565b868310156108575784890151610853601f891682610766565b8355505b6001600288020188555050505b505050505050565b5f81905092915050565b5f6108808261031e565b61088a818561086c565b935061089a818560208601610338565b80840191505092915050565b5f6108b18284610876565b91508190509291505056fea2646970667358221220b4e85bd5b26fee0089cffdb5c4b4e49d5b0a363f86091658825a40e8a17d268264736f6c63430008180033a2646970667358221220640e510900ef4837163a28af466fb6c83907ab1b04437dfdf639fbbd093e5f0e64736f6c63430008180033",
			"opcodes": "PUSH1 0x80 PUSH1 0x40 MSTORE CALLVALUE DUP1 ISZERO PUSH2 0xF JUMPI PUSH0 DUP1 REVERT JUMPDEST POP PUSH2 0x1372 DUP1 PUSH2 0x1D PUSH0 CODECOPY PUSH0 RETURN INVALID PUSH1 0x80 PUSH1 0x40 MSTORE CALLVALUE DUP1 ISZERO PUSH2 0xF JUMPI PUSH0 DUP1 REVERT JUMPDEST POP PUSH1 0x4 CALLDATASIZE LT PUSH2 0x7B JUMPI PUSH0 CALLDATALOAD PUSH1 0xE0 SHR DUP1 PUSH4 0x6057361D GT PUSH2 0x59 JUMPI DUP1 PUSH4 0x6057361D EQ PUSH2 0xD8 JUMPI DUP1 PUSH4 0x6BE0D6BF EQ PUSH2 0xF4 JUMPI DUP1 PUSH4 0x6F760F41 EQ PUSH2 0x112 JUMPI DUP1 PUSH4 0x8BAB8DD5 EQ PUSH2 0x12E JUMPI PUSH2 0x7B JUMP JUMPDEST DUP1 PUSH4 0x1DDA6541 EQ PUSH2 0x7F JUMPI DUP1 PUSH4 0x2E64CEC1 EQ PUSH2 0x89 JUMPI DUP1 PUSH4 0x2EBCE631 EQ PUSH2 0xA7 JUMPI JUMPDEST PUSH0 DUP1 REVERT JUMPDEST PUSH2 0x87 PUSH2 0x15E JUMP JUMPDEST STOP JUMPDEST PUSH2 0x91 PUSH2 0x1C5 JUMP JUMPDEST PUSH1 0x40 MLOAD PUSH2 0x9E SWAP2 SWAP1 PUSH2 0x386 JUMP JUMPDEST PUSH1 0x40 MLOAD DUP1 SWAP2 SUB SWAP1 RETURN JUMPDEST PUSH2 0xC1 PUSH1 0x4 DUP1 CALLDATASIZE SUB DUP2 ADD SWAP1 PUSH2 0xBC SWAP2 SWAP1 PUSH2 0x3DA JUMP JUMPDEST PUSH2 0x1CD JUMP JUMPDEST PUSH1 0x40 MLOAD PUSH2 0xCF SWAP3 SWAP2 SWAP1 PUSH2 0x48F JUMP JUMPDEST PUSH1 0x40 MLOAD DUP1 SWAP2 SUB SWAP1 RETURN JUMPDEST PUSH2 0xF2 PUSH1 0x4 DUP1 CALLDATASIZE SUB DUP2 ADD SWAP1 PUSH2 0xED SWAP2 SWAP1 PUSH2 0x3DA JUMP JUMPDEST PUSH2 0x282 JUMP JUMPDEST STOP JUMPDEST PUSH2 0xFC PUSH2 0x28B JUMP JUMPDEST PUSH1 0x40 MLOAD PUSH2 0x109 SWAP2 SWAP1 PUSH2 0x537 JUMP JUMPDEST PUSH1 0x40 MLOAD DUP1 SWAP2 SUB SWAP1 RETURN JUMPDEST PUSH2 0x12C PUSH1 0x4 DUP1 CALLDATASIZE SUB DUP2 ADD SWAP1 PUSH2 0x127 SWAP2 SWAP1 PUSH2 0x67C JUMP JUMPDEST PUSH2 0x2B0 JUMP JUMPDEST STOP JUMPDEST PUSH2 0x148 PUSH1 0x4 DUP1 CALLDATASIZE SUB DUP2 ADD SWAP1 PUSH2 0x143 SWAP2 SWAP1 PUSH2 0x6D6 JUMP JUMPDEST PUSH2 0x334 JUMP JUMPDEST PUSH1 0x40 MLOAD PUSH2 0x155 SWAP2 SWAP1 PUSH2 0x386 JUMP JUMPDEST PUSH1 0x40 MLOAD DUP1 SWAP2 SUB SWAP1 RETURN JUMPDEST PUSH1 0x40 MLOAD PUSH2 0x16A SWAP1 PUSH2 0x361 JUMP JUMPDEST PUSH1 0x40 MLOAD DUP1 SWAP2 SUB SWAP1 PUSH0 CREATE DUP1 ISZERO DUP1 ISZERO PUSH2 0x183 JUMPI RETURNDATASIZE PUSH0 DUP1 RETURNDATACOPY RETURNDATASIZE PUSH0 REVERT JUMPDEST POP PUSH1 0x3 PUSH0 PUSH2 0x100 EXP DUP2 SLOAD DUP2 PUSH20 0xFFFFFFFFFFFFFFFFFFFFFFFFFFFFFFFFFFFFFFFF MUL NOT AND SWAP1 DUP4 PUSH20 0xFFFFFFFFFFFFFFFFFFFFFFFFFFFFFFFFFFFFFFFF AND MUL OR SWAP1 SSTORE POP JUMP JUMPDEST PUSH0 DUP1 SLOAD SWAP1 POP SWAP1 JUMP JUMPDEST PUSH1 0x1 DUP2 DUP2 SLOAD DUP2 LT PUSH2 0x1DC JUMPI PUSH0 DUP1 REVERT JUMPDEST SWAP1 PUSH0 MSTORE PUSH1 0x20 PUSH0 KECCAK256 SWAP1 PUSH1 0x2 MUL ADD PUSH0 SWAP2 POP SWAP1 POP DUP1 PUSH0 ADD SLOAD SWAP1 DUP1 PUSH1 0x1 ADD DUP1 SLOAD PUSH2 0x201 SWAP1 PUSH2 0x74A JUMP JUMPDEST DUP1 PUSH1 0x1F ADD PUSH1 0x20 DUP1 SWAP2 DIV MUL PUSH1 0x20 ADD PUSH1 0x40 MLOAD SWAP1 DUP2 ADD PUSH1 0x40 MSTORE DUP1 SWAP3 SWAP2 SWAP1 DUP2 DUP2 MSTORE PUSH1 0x20 ADD DUP3 DUP1 SLOAD PUSH2 0x22D SWAP1 PUSH2 0x74A JUMP JUMPDEST DUP1 ISZERO PUSH2 0x278 JUMPI DUP1 PUSH1 0x1F LT PUSH2 0x24F JUMPI PUSH2 0x100 DUP1 DUP4 SLOAD DIV MUL DUP4 MSTORE SWAP2 PUSH1 0x20 ADD SWAP2 PUSH2 0x278 JUMP JUMPDEST DUP3 ADD SWAP2 SWAP1 PUSH0 MSTORE PUSH1 0x20 PUSH0 KECCAK256 SWAP1 JUMPDEST DUP2 SLOAD DUP2 MSTORE SWAP1 PUSH1 0x1 ADD SWAP1 PUSH1 0x20 ADD DUP1 DUP4 GT PUSH2 0x25B JUMPI DUP3 SWAP1 SUB PUSH1 0x1F AND DUP3 ADD SWAP2 JUMPDEST POP POP POP POP POP SWAP1 POP DUP3 JUMP JUMPDEST DUP1 PUSH0 DUP2 SWAP1 SSTORE POP POP JUMP JUMPDEST PUSH1 0x3 PUSH0 SWAP1 SLOAD SWAP1 PUSH2 0x100 EXP SWAP1 DIV PUSH20 0xFFFFFFFFFFFFFFFFFFFFFFFFFFFFFFFFFFFFFFFF AND DUP2 JUMP JUMPDEST PUSH1 0x1 PUSH1 0x40 MLOAD DUP1 PUSH1 0x40 ADD PUSH1 0x40 MSTORE DUP1 DUP4 DUP2 MSTORE PUSH1 0x20 ADD DUP5 DUP2 MSTORE POP SWAP1 DUP1 PUSH1 0x1 DUP2 SLOAD ADD DUP1 DUP3 SSTORE DUP1 SWAP2 POP POP PUSH1 0x1 SWAP1 SUB SWAP1 PUSH0 MSTORE PUSH1 0x20 PUSH0 KECCAK256 SWAP1 PUSH1 0x2 MUL ADD PUSH0 SWAP1 SWAP2 SWAP1 SWAP2 SWAP1 SWAP2 POP PUSH0 DUP3 ADD MLOAD DUP2 PUSH0 ADD SSTORE PUSH1 0x20 DUP3 ADD MLOAD DUP2 PUSH1 0x1 ADD SWAP1 DUP2 PUSH2 0x30A SWAP2 SWAP1 PUSH2 0x90E JUMP JUMPDEST POP POP POP DUP1 PUSH1 0x2 DUP4 PUSH1 0x40 MLOAD PUSH2 0x31E SWAP2 SWAP1 PUSH2 0xA17 JUMP JUMPDEST SWAP1 DUP2 MSTORE PUSH1 0x20 ADD PUSH1 0x40 MLOAD DUP1 SWAP2 SUB SWAP1 KECCAK256 DUP2 SWAP1 SSTORE POP POP POP JUMP JUMPDEST PUSH1 0x2 DUP2 DUP1 MLOAD PUSH1 0x20 DUP2 ADD DUP3 ADD DUP1 MLOAD DUP5 DUP3 MSTORE PUSH1 0x20 DUP4 ADD PUSH1 0x20 DUP6 ADD KECCAK256 DUP2 DUP4 MSTORE DUP1 SWAP6 POP POP POP POP POP POP PUSH0 SWAP2 POP SWAP1 POP SLOAD DUP2 JUMP JUMPDEST PUSH2 0x90F DUP1 PUSH2 0xA2E DUP4 CODECOPY ADD SWAP1 JUMP JUMPDEST PUSH0 DUP2 SWAP1 POP SWAP2 SWAP1 POP JUMP JUMPDEST PUSH2 0x380 DUP2 PUSH2 0x36E JUMP JUMPDEST DUP3 MSTORE POP POP JUMP JUMPDEST PUSH0 PUSH1 0x20 DUP3 ADD SWAP1 POP PUSH2 0x399 PUSH0 DUP4 ADD DUP5 PUSH2 0x377 JUMP JUMPDEST SWAP3 SWAP2 POP POP JUMP JUMPDEST PUSH0 PUSH1 0x40 MLOAD SWAP1 POP SWAP1 JUMP JUMPDEST PUSH0 DUP1 REVERT JUMPDEST PUSH0 DUP1 REVERT JUMPDEST PUSH2 0x3B9 DUP2 PUSH2 0x36E JUMP JUMPDEST DUP2 EQ PUSH2 0x3C3 JUMPI PUSH0 DUP1 REVERT JUMPDEST POP JUMP JUMPDEST PUSH0 DUP2 CALLDATALOAD SWAP1 POP PUSH2 0x3D4 DUP2 PUSH2 0x3B0 JUMP JUMPDEST SWAP3 SWAP2 POP POP JUMP JUMPDEST PUSH0 PUSH1 0x20 DUP3 DUP5 SUB SLT ISZERO PUSH2 0x3EF JUMPI PUSH2 0x3EE PUSH2 0x3A8 JUMP JUMPDEST JUMPDEST PUSH0 PUSH2 0x3FC DUP5 DUP3 DUP6 ADD PUSH2 0x3C6 JUMP JUMPDEST SWAP2 POP POP SWAP3 SWAP2 POP POP JUMP JUMPDEST PUSH0 DUP2 MLOAD SWAP1 POP SWAP2 SWAP1 POP JUMP JUMPDEST PUSH0 DUP3 DUP3 MSTORE PUSH1 0x20 DUP3 ADD SWAP1 POP SWAP3 SWAP2 POP POP JUMP JUMPDEST PUSH0 JUMPDEST DUP4 DUP2 LT ISZERO PUSH2 0x43C JUMPI DUP1 DUP3 ADD MLOAD DUP2 DUP5 ADD MSTORE PUSH1 0x20 DUP2 ADD SWAP1 POP PUSH2 0x421 JUMP JUMPDEST PUSH0 DUP5 DUP5 ADD MSTORE POP POP POP POP JUMP JUMPDEST PUSH0 PUSH1 0x1F NOT PUSH1 0x1F DUP4 ADD AND SWAP1 POP SWAP2 SWAP1 POP JUMP JUMPDEST PUSH0 PUSH2 0x461 DUP3 PUSH2 0x405 JUMP JUMPDEST PUSH2 0x46B DUP2 DUP6 PUSH2 0x40F JUMP JUMPDEST SWAP4 POP PUSH2 0x47B DUP2 DUP6 PUSH1 0x20 DUP7 ADD PUSH2 0x41F JUMP JUMPDEST PUSH2 0x484 DUP2 PUSH2 0x447 JUMP JUMPDEST DUP5 ADD SWAP2 POP POP SWAP3 SWAP2 POP POP JUMP JUMPDEST PUSH0 PUSH1 0x40 DUP3 ADD SWAP1 POP PUSH2 0x4A2 PUSH0 DUP4 ADD DUP6 PUSH2 0x377 JUMP JUMPDEST DUP2 DUP2 SUB PUSH1 0x20 DUP4 ADD MSTORE PUSH2 0x4B4 DUP2 DUP5 PUSH2 0x457 JUMP JUMPDEST SWAP1 POP SWAP4 SWAP3 POP POP POP JUMP JUMPDEST PUSH0 PUSH20 0xFFFFFFFFFFFFFFFFFFFFFFFFFFFFFFFFFFFFFFFF DUP3 AND SWAP1 POP SWAP2 SWAP1 POP JUMP JUMPDEST PUSH0 DUP2 SWAP1 POP SWAP2 SWAP1 POP JUMP JUMPDEST PUSH0 PUSH2 0x4FF PUSH2 0x4FA PUSH2 0x4F5 DUP5 PUSH2 0x4BD JUMP JUMPDEST PUSH2 0x4DC JUMP JUMPDEST PUSH2 0x4BD JUMP JUMPDEST SWAP1 POP SWAP2 SWAP1 POP JUMP JUMPDEST PUSH0 PUSH2 0x510 DUP3 PUSH2 0x4E5 JUMP JUMPDEST SWAP1 POP SWAP2 SWAP1 POP JUMP JUMPDEST PUSH0 PUSH2 0x521 DUP3 PUSH2 0x506 JUMP JUMPDEST SWAP1 POP SWAP2 SWAP1 POP JUMP JUMPDEST PUSH2 0x531 DUP2 PUSH2 0x517 JUMP JUMPDEST DUP3 MSTORE POP POP JUMP JUMPDEST PUSH0 PUSH1 0x20 DUP3 ADD SWAP1 POP PUSH2 0x54A PUSH0 DUP4 ADD DUP5 PUSH2 0x528 JUMP JUMPDEST SWAP3 SWAP2 POP POP JUMP JUMPDEST PUSH0 DUP1 REVERT JUMPDEST PUSH0 DUP1 REVERT JUMPDEST PUSH32 0x4E487B7100000000000000000000000000000000000000000000000000000000 PUSH0 MSTORE PUSH1 0x41 PUSH1 0x4 MSTORE PUSH1 0x24 PUSH0 REVERT JUMPDEST PUSH2 0x58E DUP3 PUSH2 0x447 JUMP JUMPDEST DUP2 ADD DUP2 DUP2 LT PUSH8 0xFFFFFFFFFFFFFFFF DUP3 GT OR ISZERO PUSH2 0x5AD JUMPI PUSH2 0x5AC PUSH2 0x558 JUMP JUMPDEST JUMPDEST DUP1 PUSH1 0x40 MSTORE POP POP POP JUMP JUMPDEST PUSH0 PUSH2 0x5BF PUSH2 0x39F JUMP JUMPDEST SWAP1 POP PUSH2 0x5CB DUP3 DUP3 PUSH2 0x585 JUMP JUMPDEST SWAP2 SWAP1 POP JUMP JUMPDEST PUSH0 PUSH8 0xFFFFFFFFFFFFFFFF DUP3 GT ISZERO PUSH2 0x5EA JUMPI PUSH2 0x5E9 PUSH2 0x558 JUMP JUMPDEST JUMPDEST PUSH2 0x5F3 DUP3 PUSH2 0x447 JUMP JUMPDEST SWAP1 POP PUSH1 0x20 DUP2 ADD SWAP1 POP SWAP2 SWAP1 POP JUMP JUMPDEST DUP3 DUP2 DUP4 CALLDATACOPY PUSH0 DUP4 DUP4 ADD MSTORE POP POP POP JUMP JUMPDEST PUSH0 PUSH2 0x620 PUSH2 0x61B DUP5 PUSH2 0x5D0 JUMP JUMPDEST PUSH2 0x5B6 JUMP JUMPDEST SWAP1 POP DUP3 DUP2 MSTORE PUSH1 0x20 DUP2 ADD DUP5 DUP5 DUP5 ADD GT ISZERO PUSH2 0x63C JUMPI PUSH2 0x63B PUSH2 0x554 JUMP JUMPDEST JUMPDEST PUSH2 0x647 DUP5 DUP3 DUP6 PUSH2 0x600 JUMP JUMPDEST POP SWAP4 SWAP3 POP POP POP JUMP JUMPDEST PUSH0 DUP3 PUSH1 0x1F DUP4 ADD SLT PUSH2 0x663 JUMPI PUSH2 0x662 PUSH2 0x550 JUMP JUMPDEST JUMPDEST DUP2 CALLDATALOAD PUSH2 0x673 DUP5 DUP3 PUSH1 0x20 DUP7 ADD PUSH2 0x60E JUMP JUMPDEST SWAP2 POP POP SWAP3 SWAP2 POP POP JUMP JUMPDEST PUSH0 DUP1 PUSH1 0x40 DUP4 DUP6 SUB SLT ISZERO PUSH2 0x692 JUMPI PUSH2 0x691 PUSH2 0x3A8 JUMP JUMPDEST JUMPDEST PUSH0 DUP4 ADD CALLDATALOAD PUSH8 0xFFFFFFFFFFFFFFFF DUP2 GT ISZERO PUSH2 0x6AF JUMPI PUSH2 0x6AE PUSH2 0x3AC JUMP JUMPDEST JUMPDEST PUSH2 0x6BB DUP6 DUP3 DUP7 ADD PUSH2 0x64F JUMP JUMPDEST SWAP3 POP POP PUSH1 0x20 PUSH2 0x6CC DUP6 DUP3 DUP7 ADD PUSH2 0x3C6 JUMP JUMPDEST SWAP2 POP POP SWAP3 POP SWAP3 SWAP1 POP JUMP JUMPDEST PUSH0 PUSH1 0x20 DUP3 DUP5 SUB SLT ISZERO PUSH2 0x6EB JUMPI PUSH2 0x6EA PUSH2 0x3A8 JUMP JUMPDEST JUMPDEST PUSH0 DUP3 ADD CALLDATALOAD PUSH8 0xFFFFFFFFFFFFFFFF DUP2 GT ISZERO PUSH2 0x708 JUMPI PUSH2 0x707 PUSH2 0x3AC JUMP JUMPDEST JUMPDEST PUSH2 0x714 DUP5 DUP3 DUP6 ADD PUSH2 0x64F JUMP JUMPDEST SWAP2 POP POP SWAP3 SWAP2 POP POP JUMP JUMPDEST PUSH32 0x4E487B7100000000000000000000000000000000000000000000000000000000 PUSH0 MSTORE PUSH1 0x22 PUSH1 0x4 MSTORE PUSH1 0x24 PUSH0 REVERT JUMPDEST PUSH0 PUSH1 0x2 DUP3 DIV SWAP1 POP PUSH1 0x1 DUP3 AND DUP1 PUSH2 0x761 JUMPI PUSH1 0x7F DUP3 AND SWAP2 POP JUMPDEST PUSH1 0x20 DUP3 LT DUP2 SUB PUSH2 0x774 JUMPI PUSH2 0x773 PUSH2 0x71D JUMP JUMPDEST JUMPDEST POP SWAP2 SWAP1 POP JUMP JUMPDEST PUSH0 DUP2 SWAP1 POP DUP2 PUSH0 MSTORE PUSH1 0x20 PUSH0 KECCAK256 SWAP1 POP SWAP2 SWAP1 POP JUMP JUMPDEST PUSH0 PUSH1 0x20 PUSH1 0x1F DUP4 ADD DIV SWAP1 POP SWAP2 SWAP1 POP JUMP JUMPDEST PUSH0 DUP3 DUP3 SHL SWAP1 POP SWAP3 SWAP2 POP POP JUMP JUMPDEST PUSH0 PUSH1 0x8 DUP4 MUL PUSH2 0x7D6 PUSH32 0xFFFFFFFFFFFFFFFFFFFFFFFFFFFFFFFFFFFFFFFFFFFFFFFFFFFFFFFFFFFFFFFF DUP3 PUSH2 0x79B JUMP JUMPDEST PUSH2 0x7E0 DUP7 DUP4 PUSH2 0x79B JUMP JUMPDEST SWAP6 POP DUP1 NOT DUP5 AND SWAP4 POP DUP1 DUP7 AND DUP5 OR SWAP3 POP POP POP SWAP4 SWAP3 POP POP POP JUMP JUMPDEST PUSH0 PUSH2 0x812 PUSH2 0x80D PUSH2 0x808 DUP5 PUSH2 0x36E JUMP JUMPDEST PUSH2 0x4DC JUMP JUMPDEST PUSH2 0x36E JUMP JUMPDEST SWAP1 POP SWAP2 SWAP1 POP JUMP JUMPDEST PUSH0 DUP2 SWAP1 POP SWAP2 SWAP1 POP JUMP JUMPDEST PUSH2 0x82B DUP4 PUSH2 0x7F8 JUMP JUMPDEST PUSH2 0x83F PUSH2 0x837 DUP3 PUSH2 0x819 JUMP JUMPDEST DUP5 DUP5 SLOAD PUSH2 0x7A7 JUMP JUMPDEST DUP3 SSTORE POP POP POP POP JUMP JUMPDEST PUSH0 SWAP1 JUMP JUMPDEST PUSH2 0x853 PUSH2 0x847 JUMP JUMPDEST PUSH2 0x85E DUP2 DUP5 DUP5 PUSH2 0x822 JUMP JUMPDEST POP POP POP JUMP JUMPDEST JUMPDEST DUP2 DUP2 LT ISZERO PUSH2 0x881 JUMPI PUSH2 0x876 PUSH0 DUP3 PUSH2 0x84B JUMP JUMPDEST PUSH1 0x1 DUP2 ADD SWAP1 POP PUSH2 0x864 JUMP JUMPDEST POP POP JUMP JUMPDEST PUSH1 0x1F DUP3 GT ISZERO PUSH2 0x8C6 JUMPI PUSH2 0x897 DUP2 PUSH2 0x77A JUMP JUMPDEST PUSH2 0x8A0 DUP5 PUSH2 0x78C JUMP JUMPDEST DUP2 ADD PUSH1 0x20 DUP6 LT ISZERO PUSH2 0x8AF JUMPI DUP2 SWAP1 POP JUMPDEST PUSH2 0x8C3 PUSH2 0x8BB DUP6 PUSH2 0x78C JUMP JUMPDEST DUP4 ADD DUP3 PUSH2 0x863 JUMP JUMPDEST POP POP JUMPDEST POP POP POP JUMP JUMPDEST PUSH0 DUP3 DUP3 SHR SWAP1 POP SWAP3 SWAP2 POP POP JUMP JUMPDEST PUSH0 PUSH2 0x8E6 PUSH0 NOT DUP5 PUSH1 0x8 MUL PUSH2 0x8CB JUMP JUMPDEST NOT DUP1 DUP4 AND SWAP2 POP POP SWAP3 SWAP2 POP POP JUMP JUMPDEST PUSH0 PUSH2 0x8FE DUP4 DUP4 PUSH2 0x8D7 JUMP JUMPDEST SWAP2 POP DUP3 PUSH1 0x2 MUL DUP3 OR SWAP1 POP SWAP3 SWAP2 POP POP JUMP JUMPDEST PUSH2 0x917 DUP3 PUSH2 0x405 JUMP JUMPDEST PUSH8 0xFFFFFFFFFFFFFFFF DUP2 GT ISZERO PUSH2 0x930 JUMPI PUSH2 0x92F PUSH2 0x558 JUMP JUMPDEST JUMPDEST PUSH2 0x93A DUP3 SLOAD PUSH2 0x74A JUMP JUMPDEST PUSH2 0x945 DUP3 DUP3 DUP6 PUSH2 0x885 JUMP JUMPDEST PUSH0 PUSH1 0x20 SWAP1 POP PUSH1 0x1F DUP4 GT PUSH1 0x1 DUP2 EQ PUSH2 0x976 JUMPI PUSH0 DUP5 ISZERO PUSH2 0x964 JUMPI DUP3 DUP8 ADD MLOAD SWAP1 POP JUMPDEST PUSH2 0x96E DUP6 DUP3 PUSH2 0x8F3 JUMP JUMPDEST DUP7 SSTORE POP PUSH2 0x9D5 JUMP JUMPDEST PUSH1 0x1F NOT DUP5 AND PUSH2 0x984 DUP7 PUSH2 0x77A JUMP JUMPDEST PUSH0 JUMPDEST DUP3 DUP2 LT ISZERO PUSH2 0x9AB JUMPI DUP5 DUP10 ADD MLOAD DUP3 SSTORE PUSH1 0x1 DUP3 ADD SWAP2 POP PUSH1 0x20 DUP6 ADD SWAP5 POP PUSH1 0x20 DUP2 ADD SWAP1 POP PUSH2 0x986 JUMP JUMPDEST DUP7 DUP4 LT ISZERO PUSH2 0x9C8 JUMPI DUP5 DUP10 ADD MLOAD PUSH2 0x9C4 PUSH1 0x1F DUP10 AND DUP3 PUSH2 0x8D7 JUMP JUMPDEST DUP4 SSTORE POP JUMPDEST PUSH1 0x1 PUSH1 0x2 DUP9 MUL ADD DUP9 SSTORE POP POP POP JUMPDEST POP POP POP POP POP POP JUMP JUMPDEST PUSH0 DUP2 SWAP1 POP SWAP3 SWAP2 POP POP JUMP JUMPDEST PUSH0 PUSH2 0x9F1 DUP3 PUSH2 0x405 JUMP JUMPDEST PUSH2 0x9FB DUP2 DUP6 PUSH2 0x9DD JUMP JUMPDEST SWAP4 POP PUSH2 0xA0B DUP2 DUP6 PUSH1 0x20 DUP7 ADD PUSH2 0x41F JUMP JUMPDEST DUP1 DUP5 ADD SWAP2 POP POP SWAP3 SWAP2 POP POP JUMP JUMPDEST PUSH0 PUSH2 0xA22 DUP3 DUP5 PUSH2 0x9E7 JUMP JUMPDEST SWAP2 POP DUP2 SWAP1 POP SWAP3 SWAP2 POP POP JUMP INVALID PUSH1 0x80 PUSH1 0x40 MSTORE CALLVALUE DUP1 ISZERO PUSH2 0xF JUMPI PUSH0 DUP1 REVERT JUMPDEST POP PUSH2 0x8F2 DUP1 PUSH2 0x1D PUSH0 CODECOPY PUSH0 RETURN INVALID PUSH1 0x80 PUSH1 0x40 MSTORE CALLVALUE DUP1 ISZERO PUSH2 0xF JUMPI PUSH0 DUP1 REVERT JUMPDEST POP PUSH1 0x4 CALLDATASIZE LT PUSH2 0x55 JUMPI PUSH0 CALLDATALOAD PUSH1 0xE0 SHR DUP1 PUSH4 0x2E64CEC1 EQ PUSH2 0x59 JUMPI DUP1 PUSH4 0x2EBCE631 EQ PUSH2 0x77 JUMPI DUP1 PUSH4 0x6057361D EQ PUSH2 0xA8 JUMPI DUP1 PUSH4 0x6F760F41 EQ PUSH2 0xC4 JUMPI DUP1 PUSH4 0x8BAB8DD5 EQ PUSH2 0xE0 JUMPI JUMPDEST PUSH0 DUP1 REVERT JUMPDEST PUSH2 0x61 PUSH2 0x110 JUMP JUMPDEST PUSH1 0x40 MLOAD PUSH2 0x6E SWAP2 SWAP1 PUSH2 0x29F JUMP JUMPDEST PUSH1 0x40 MLOAD DUP1 SWAP2 SUB SWAP1 RETURN JUMPDEST PUSH2 0x91 PUSH1 0x4 DUP1 CALLDATASIZE SUB DUP2 ADD SWAP1 PUSH2 0x8C SWAP2 SWAP1 PUSH2 0x2F3 JUMP JUMPDEST PUSH2 0x118 JUMP JUMPDEST PUSH1 0x40 MLOAD PUSH2 0x9F SWAP3 SWAP2 SWAP1 PUSH2 0x3A8 JUMP JUMPDEST PUSH1 0x40 MLOAD DUP1 SWAP2 SUB SWAP1 RETURN JUMPDEST PUSH2 0xC2 PUSH1 0x4 DUP1 CALLDATASIZE SUB DUP2 ADD SWAP1 PUSH2 0xBD SWAP2 SWAP1 PUSH2 0x2F3 JUMP JUMPDEST PUSH2 0x1CD JUMP JUMPDEST STOP JUMPDEST PUSH2 0xDE PUSH1 0x4 DUP1 CALLDATASIZE SUB DUP2 ADD SWAP1 PUSH2 0xD9 SWAP2 SWAP1 PUSH2 0x502 JUMP JUMPDEST PUSH2 0x1D6 JUMP JUMPDEST STOP JUMPDEST PUSH2 0xFA PUSH1 0x4 DUP1 CALLDATASIZE SUB DUP2 ADD SWAP1 PUSH2 0xF5 SWAP2 SWAP1 PUSH2 0x55C JUMP JUMPDEST PUSH2 0x25A JUMP JUMPDEST PUSH1 0x40 MLOAD PUSH2 0x107 SWAP2 SWAP1 PUSH2 0x29F JUMP JUMPDEST PUSH1 0x40 MLOAD DUP1 SWAP2 SUB SWAP1 RETURN JUMPDEST PUSH0 DUP1 SLOAD SWAP1 POP SWAP1 JUMP JUMPDEST PUSH1 0x1 DUP2 DUP2 SLOAD DUP2 LT PUSH2 0x127 JUMPI PUSH0 DUP1 REVERT JUMPDEST SWAP1 PUSH0 MSTORE PUSH1 0x20 PUSH0 KECCAK256 SWAP1 PUSH1 0x2 MUL ADD PUSH0 SWAP2 POP SWAP1 POP DUP1 PUSH0 ADD SLOAD SWAP1 DUP1 PUSH1 0x1 ADD DUP1 SLOAD PUSH2 0x14C SWAP1 PUSH2 0x5D0 JUMP JUMPDEST DUP1 PUSH1 0x1F ADD PUSH1 0x20 DUP1 SWAP2 DIV MUL PUSH1 0x20 ADD PUSH1 0x40 MLOAD SWAP1 DUP2 ADD PUSH1 0x40 MSTORE DUP1 SWAP3 SWAP2 SWAP1 DUP2 DUP2 MSTORE PUSH1 0x20 ADD DUP3 DUP1 SLOAD PUSH2 0x178 SWAP1 PUSH2 0x5D0 JUMP JUMPDEST DUP1 ISZERO PUSH2 0x1C3 JUMPI DUP1 PUSH1 0x1F LT PUSH2 0x19A JUMPI PUSH2 0x100 DUP1 DUP4 SLOAD DIV MUL DUP4 MSTORE SWAP2 PUSH1 0x20 ADD SWAP2 PUSH2 0x1C3 JUMP JUMPDEST DUP3 ADD SWAP2 SWAP1 PUSH0 MSTORE PUSH1 0x20 PUSH0 KECCAK256 SWAP1 JUMPDEST DUP2 SLOAD DUP2 MSTORE SWAP1 PUSH1 0x1 ADD SWAP1 PUSH1 0x20 ADD DUP1 DUP4 GT PUSH2 0x1A6 JUMPI DUP3 SWAP1 SUB PUSH1 0x1F AND DUP3 ADD SWAP2 JUMPDEST POP POP POP POP POP SWAP1 POP DUP3 JUMP JUMPDEST DUP1 PUSH0 DUP2 SWAP1 SSTORE POP POP JUMP JUMPDEST PUSH1 0x1 PUSH1 0x40 MLOAD DUP1 PUSH1 0x40 ADD PUSH1 0x40 MSTORE DUP1 DUP4 DUP2 MSTORE PUSH1 0x20 ADD DUP5 DUP2 MSTORE POP SWAP1 DUP1 PUSH1 0x1 DUP2 SLOAD ADD DUP1 DUP3 SSTORE DUP1 SWAP2 POP POP PUSH1 0x1 SWAP1 SUB SWAP1 PUSH0 MSTORE PUSH1 0x20 PUSH0 KECCAK256 SWAP1 PUSH1 0x2 MUL ADD PUSH0 SWAP1 SWAP2 SWAP1 SWAP2 SWAP1 SWAP2 POP PUSH0 DUP3 ADD MLOAD DUP2 PUSH0 ADD SSTORE PUSH1 0x20 DUP3 ADD MLOAD DUP2 PUSH1 0x1 ADD SWAP1 DUP2 PUSH2 0x230 SWAP2 SWAP1 PUSH2 0x79D JUMP JUMPDEST POP POP POP DUP1 PUSH1 0x2 DUP4 PUSH1 0x40 MLOAD PUSH2 0x244 SWAP2 SWAP1 PUSH2 0x8A6 JUMP JUMPDEST SWAP1 DUP2 MSTORE PUSH1 0x20 ADD PUSH1 0x40 MLOAD DUP1 SWAP2 SUB SWAP1 KECCAK256 DUP2 SWAP1 SSTORE POP POP POP JUMP JUMPDEST PUSH1 0x2 DUP2 DUP1 MLOAD PUSH1 0x20 DUP2 ADD DUP3 ADD DUP1 MLOAD DUP5 DUP3 MSTORE PUSH1 0x20 DUP4 ADD PUSH1 0x20 DUP6 ADD KECCAK256 DUP2 DUP4 MSTORE DUP1 SWAP6 POP POP POP POP POP POP PUSH0 SWAP2 POP SWAP1 POP SLOAD DUP2 JUMP JUMPDEST PUSH0 DUP2 SWAP1 POP SWAP2 SWAP1 POP JUMP JUMPDEST PUSH2 0x299 DUP2 PUSH2 0x287 JUMP JUMPDEST DUP3 MSTORE POP POP JUMP JUMPDEST PUSH0 PUSH1 0x20 DUP3 ADD SWAP1 POP PUSH2 0x2B2 PUSH0 DUP4 ADD DUP5 PUSH2 0x290 JUMP JUMPDEST SWAP3 SWAP2 POP POP JUMP JUMPDEST PUSH0 PUSH1 0x40 MLOAD SWAP1 POP SWAP1 JUMP JUMPDEST PUSH0 DUP1 REVERT JUMPDEST PUSH0 DUP1 REVERT JUMPDEST PUSH2 0x2D2 DUP2 PUSH2 0x287 JUMP JUMPDEST DUP2 EQ PUSH2 0x2DC JUMPI PUSH0 DUP1 REVERT JUMPDEST POP JUMP JUMPDEST PUSH0 DUP2 CALLDATALOAD SWAP1 POP PUSH2 0x2ED DUP2 PUSH2 0x2C9 JUMP JUMPDEST SWAP3 SWAP2 POP POP JUMP JUMPDEST PUSH0 PUSH1 0x20 DUP3 DUP5 SUB SLT ISZERO PUSH2 0x308 JUMPI PUSH2 0x307 PUSH2 0x2C1 JUMP JUMPDEST JUMPDEST PUSH0 PUSH2 0x315 DUP5 DUP3 DUP6 ADD PUSH2 0x2DF JUMP JUMPDEST SWAP2 POP POP SWAP3 SWAP2 POP POP JUMP JUMPDEST PUSH0 DUP2 MLOAD SWAP1 POP SWAP2 SWAP1 POP JUMP JUMPDEST PUSH0 DUP3 DUP3 MSTORE PUSH1 0x20 DUP3 ADD SWAP1 POP SWAP3 SWAP2 POP POP JUMP JUMPDEST PUSH0 JUMPDEST DUP4 DUP2 LT ISZERO PUSH2 0x355 JUMPI DUP1 DUP3 ADD MLOAD DUP2 DUP5 ADD MSTORE PUSH1 0x20 DUP2 ADD SWAP1 POP PUSH2 0x33A JUMP JUMPDEST PUSH0 DUP5 DUP5 ADD MSTORE POP POP POP POP JUMP JUMPDEST PUSH0 PUSH1 0x1F NOT PUSH1 0x1F DUP4 ADD AND SWAP1 POP SWAP2 SWAP1 POP JUMP JUMPDEST PUSH0 PUSH2 0x37A DUP3 PUSH2 0x31E JUMP JUMPDEST PUSH2 0x384 DUP2 DUP6 PUSH2 0x328 JUMP JUMPDEST SWAP4 POP PUSH2 0x394 DUP2 DUP6 PUSH1 0x20 DUP7 ADD PUSH2 0x338 JUMP JUMPDEST PUSH2 0x39D DUP2 PUSH2 0x360 JUMP JUMPDEST DUP5 ADD SWAP2 POP POP SWAP3 SWAP2 POP POP JUMP JUMPDEST PUSH0 PUSH1 0x40 DUP3 ADD SWAP1 POP PUSH2 0x3BB PUSH0 DUP4 ADD DUP6 PUSH2 0x290 JUMP JUMPDEST DUP2 DUP2 SUB PUSH1 0x20 DUP4 ADD MSTORE PUSH2 0x3CD DUP2 DUP5 PUSH2 0x370 JUMP JUMPDEST SWAP1 POP SWAP4 SWAP3 POP POP POP JUMP JUMPDEST PUSH0 DUP1 REVERT JUMPDEST PUSH0 DUP1 REVERT JUMPDEST PUSH32 0x4E487B7100000000000000000000000000000000000000000000000000000000 PUSH0 MSTORE PUSH1 0x41 PUSH1 0x4 MSTORE PUSH1 0x24 PUSH0 REVERT JUMPDEST PUSH2 0x414 DUP3 PUSH2 0x360 JUMP JUMPDEST DUP2 ADD DUP2 DUP2 LT PUSH8 0xFFFFFFFFFFFFFFFF DUP3 GT OR ISZERO PUSH2 0x433 JUMPI PUSH2 0x432 PUSH2 0x3DE JUMP JUMPDEST JUMPDEST DUP1 PUSH1 0x40 MSTORE POP POP POP JUMP JUMPDEST PUSH0 PUSH2 0x445 PUSH2 0x2B8 JUMP JUMPDEST SWAP1 POP PUSH2 0x451 DUP3 DUP3 PUSH2 0x40B JUMP JUMPDEST SWAP2 SWAP1 POP JUMP JUMPDEST PUSH0 PUSH8 0xFFFFFFFFFFFFFFFF DUP3 GT ISZERO PUSH2 0x470 JUMPI PUSH2 0x46F PUSH2 0x3DE JUMP JUMPDEST JUMPDEST PUSH2 0x479 DUP3 PUSH2 0x360 JUMP JUMPDEST SWAP1 POP PUSH1 0x20 DUP2 ADD SWAP1 POP SWAP2 SWAP1 POP JUMP JUMPDEST DUP3 DUP2 DUP4 CALLDATACOPY PUSH0 DUP4 DUP4 ADD MSTORE POP POP POP JUMP JUMPDEST PUSH0 PUSH2 0x4A6 PUSH2 0x4A1 DUP5 PUSH2 0x456 JUMP JUMPDEST PUSH2 0x43C JUMP JUMPDEST SWAP1 POP DUP3 DUP2 MSTORE PUSH1 0x20 DUP2 ADD DUP5 DUP5 DUP5 ADD GT ISZERO PUSH2 0x4C2 JUMPI PUSH2 0x4C1 PUSH2 0x3DA JUMP JUMPDEST JUMPDEST PUSH2 0x4CD DUP5 DUP3 DUP6 PUSH2 0x486 JUMP JUMPDEST POP SWAP4 SWAP3 POP POP POP JUMP JUMPDEST PUSH0 DUP3 PUSH1 0x1F DUP4 ADD SLT PUSH2 0x4E9 JUMPI PUSH2 0x4E8 PUSH2 0x3D6 JUMP JUMPDEST JUMPDEST DUP2 CALLDATALOAD PUSH2 0x4F9 DUP5 DUP3 PUSH1 0x20 DUP7 ADD PUSH2 0x494 JUMP JUMPDEST SWAP2 POP POP SWAP3 SWAP2 POP POP JUMP JUMPDEST PUSH0 DUP1 PUSH1 0x40 DUP4 DUP6 SUB SLT ISZERO PUSH2 0x518 JUMPI PUSH2 0x517 PUSH2 0x2C1 JUMP JUMPDEST JUMPDEST PUSH0 DUP4 ADD CALLDATALOAD PUSH8 0xFFFFFFFFFFFFFFFF DUP2 GT ISZERO PUSH2 0x535 JUMPI PUSH2 0x534 PUSH2 0x2C5 JUMP JUMPDEST JUMPDEST PUSH2 0x541 DUP6 DUP3 DUP7 ADD PUSH2 0x4D5 JUMP JUMPDEST SWAP3 POP POP PUSH1 0x20 PUSH2 0x552 DUP6 DUP3 DUP7 ADD PUSH2 0x2DF JUMP JUMPDEST SWAP2 POP POP SWAP3 POP SWAP3 SWAP1 POP JUMP JUMPDEST PUSH0 PUSH1 0x20 DUP3 DUP5 SUB SLT ISZERO PUSH2 0x571 JUMPI PUSH2 0x570 PUSH2 0x2C1 JUMP JUMPDEST JUMPDEST PUSH0 DUP3 ADD CALLDATALOAD PUSH8 0xFFFFFFFFFFFFFFFF DUP2 GT ISZERO PUSH2 0x58E JUMPI PUSH2 0x58D PUSH2 0x2C5 JUMP JUMPDEST JUMPDEST PUSH2 0x59A DUP5 DUP3 DUP6 ADD PUSH2 0x4D5 JUMP JUMPDEST SWAP2 POP POP SWAP3 SWAP2 POP POP JUMP JUMPDEST PUSH32 0x4E487B7100000000000000000000000000000000000000000000000000000000 PUSH0 MSTORE PUSH1 0x22 PUSH1 0x4 MSTORE PUSH1 0x24 PUSH0 REVERT JUMPDEST PUSH0 PUSH1 0x2 DUP3 DIV SWAP1 POP PUSH1 0x1 DUP3 AND DUP1 PUSH2 0x5E7 JUMPI PUSH1 0x7F DUP3 AND SWAP2 POP JUMPDEST PUSH1 0x20 DUP3 LT DUP2 SUB PUSH2 0x5FA JUMPI PUSH2 0x5F9 PUSH2 0x5A3 JUMP JUMPDEST JUMPDEST POP SWAP2 SWAP1 POP JUMP JUMPDEST PUSH0 DUP2 SWAP1 POP DUP2 PUSH0 MSTORE PUSH1 0x20 PUSH0 KECCAK256 SWAP1 POP SWAP2 SWAP1 POP JUMP JUMPDEST PUSH0 PUSH1 0x20 PUSH1 0x1F DUP4 ADD DIV SWAP1 POP SWAP2 SWAP1 POP JUMP JUMPDEST PUSH0 DUP3 DUP3 SHL SWAP1 POP SWAP3 SWAP2 POP POP JUMP JUMPDEST PUSH0 PUSH1 0x8 DUP4 MUL PUSH2 0x65C PUSH32 0xFFFFFFFFFFFFFFFFFFFFFFFFFFFFFFFFFFFFFFFFFFFFFFFFFFFFFFFFFFFFFFFF DUP3 PUSH2 0x621 JUMP JUMPDEST PUSH2 0x666 DUP7 DUP4 PUSH2 0x621 JUMP JUMPDEST SWAP6 POP DUP1 NOT DUP5 AND SWAP4 POP DUP1 DUP7 AND DUP5 OR SWAP3 POP POP POP SWAP4 SWAP3 POP POP POP JUMP JUMPDEST PUSH0 DUP2 SWAP1 POP SWAP2 SWAP1 POP JUMP JUMPDEST PUSH0 PUSH2 0x6A1 PUSH2 0x69C PUSH2 0x697 DUP5 PUSH2 0x287 JUMP JUMPDEST PUSH2 0x67E JUMP JUMPDEST PUSH2 0x287 JUMP JUMPDEST SWAP1 POP SWAP2 SWAP1 POP JUMP JUMPDEST PUSH0 DUP2 SWAP1 POP SWAP2 SWAP1 POP JUMP JUMPDEST PUSH2 0x6BA DUP4 PUSH2 0x687 JUMP JUMPDEST PUSH2 0x6CE PUSH2 0x6C6 DUP3 PUSH2 0x6A8 JUMP JUMPDEST DUP5 DUP5 SLOAD PUSH2 0x62D JUMP JUMPDEST DUP3 SSTORE POP POP POP POP JUMP JUMPDEST PUSH0 SWAP1 JUMP JUMPDEST PUSH2 0x6E2 PUSH2 0x6D6 JUMP JUMPDEST PUSH2 0x6ED DUP2 DUP5 DUP5 PUSH2 0x6B1 JUMP JUMPDEST POP POP POP JUMP JUMPDEST JUMPDEST DUP2 DUP2 LT ISZERO PUSH2 0x710 JUMPI PUSH2 0x705 PUSH0 DUP3 PUSH2 0x6DA JUMP JUMPDEST PUSH1 0x1 DUP2 ADD SWAP1 POP PUSH2 0x6F3 JUMP JUMPDEST POP POP JUMP JUMPDEST PUSH1 0x1F DUP3 GT ISZERO PUSH2 0x755 JUMPI PUSH2 0x726 DUP2 PUSH2 0x600 JUMP JUMPDEST PUSH2 0x72F DUP5 PUSH2 0x612 JUMP JUMPDEST DUP2 ADD PUSH1 0x20 DUP6 LT ISZERO PUSH2 0x73E JUMPI DUP2 SWAP1 POP JUMPDEST PUSH2 0x752 PUSH2 0x74A DUP6 PUSH2 0x612 JUMP JUMPDEST DUP4 ADD DUP3 PUSH2 0x6F2 JUMP JUMPDEST POP POP JUMPDEST POP POP POP JUMP JUMPDEST PUSH0 DUP3 DUP3 SHR SWAP1 POP SWAP3 SWAP2 POP POP JUMP JUMPDEST PUSH0 PUSH2 0x775 PUSH0 NOT DUP5 PUSH1 0x8 MUL PUSH2 0x75A JUMP JUMPDEST NOT DUP1 DUP4 AND SWAP2 POP POP SWAP3 SWAP2 POP POP JUMP JUMPDEST PUSH0 PUSH2 0x78D DUP4 DUP4 PUSH2 0x766 JUMP JUMPDEST SWAP2 POP DUP3 PUSH1 0x2 MUL DUP3 OR SWAP1 POP SWAP3 SWAP2 POP POP JUMP JUMPDEST PUSH2 0x7A6 DUP3 PUSH2 0x31E JUMP JUMPDEST PUSH8 0xFFFFFFFFFFFFFFFF DUP2 GT ISZERO PUSH2 0x7BF JUMPI PUSH2 0x7BE PUSH2 0x3DE JUMP JUMPDEST JUMPDEST PUSH2 0x7C9 DUP3 SLOAD PUSH2 0x5D0 JUMP JUMPDEST PUSH2 0x7D4 DUP3 DUP3 DUP6 PUSH2 0x714 JUMP JUMPDEST PUSH0 PUSH1 0x20 SWAP1 POP PUSH1 0x1F DUP4 GT PUSH1 0x1 DUP2 EQ PUSH2 0x805 JUMPI PUSH0 DUP5 ISZERO PUSH2 0x7F3 JUMPI DUP3 DUP8 ADD MLOAD SWAP1 POP JUMPDEST PUSH2 0x7FD DUP6 DUP3 PUSH2 0x782 JUMP JUMPDEST DUP7 SSTORE POP PUSH2 0x864 JUMP JUMPDEST PUSH1 0x1F NOT DUP5 AND PUSH2 0x813 DUP7 PUSH2 0x600 JUMP JUMPDEST PUSH0 JUMPDEST DUP3 DUP2 LT ISZERO PUSH2 0x83A JUMPI DUP5 DUP10 ADD MLOAD DUP3 SSTORE PUSH1 0x1 DUP3 ADD SWAP2 POP PUSH1 0x20 DUP6 ADD SWAP5 POP PUSH1 0x20 DUP2 ADD SWAP1 POP PUSH2 0x815 JUMP JUMPDEST DUP7 DUP4 LT ISZERO PUSH2 0x857 JUMPI DUP5 DUP10 ADD MLOAD PUSH2 0x853 PUSH1 0x1F DUP10 AND DUP3 PUSH2 0x766 JUMP JUMPDEST DUP4 SSTORE POP JUMPDEST PUSH1 0x1 PUSH1 0x2 DUP9 MUL ADD DUP9 SSTORE POP POP POP JUMPDEST POP POP POP POP POP POP JUMP JUMPDEST PUSH0 DUP2 SWAP1 POP SWAP3 SWAP2 POP POP JUMP JUMPDEST PUSH0 PUSH2 0x880 DUP3 PUSH2 0x31E JUMP JUMPDEST PUSH2 0x88A DUP2 DUP6 PUSH2 0x86C JUMP JUMPDEST SWAP4 POP PUSH2 0x89A DUP2 DUP6 PUSH1 0x20 DUP7 ADD PUSH2 0x338 JUMP JUMPDEST DUP1 DUP5 ADD SWAP2 POP POP SWAP3 SWAP2 POP POP JUMP JUMPDEST PUSH0 PUSH2 0x8B1 DUP3 DUP5 PUSH2 0x876 JUMP JUMPDEST SWAP2 POP DUP2 SWAP1 POP SWAP3 SWAP2 POP POP JUMP INVALID LOG2 PUSH5 0x6970667358 0x22 SLT KECCAK256 0xB4 0xE8 JUMPDEST 0xD5 0xB2 PUSH16 0xEE0089CFFDB5C4B4E49D5B0A363F8609 AND PC DUP3 GAS BLOCKHASH 0xE8 LOG1 PUSH30 0x268264736F6C63430008180033A2646970667358221220640E510900EF48 CALLDATACOPY AND GASPRICE 0x28 0xAF CHAINID PUSH16 0xB6C83907AB1B04437DFDF639FBBD093E PUSH0 0xE PUSH5 0x736F6C6343 STOP ADDMOD XOR STOP CALLER "
		},
		"gasEstimates": {
			"creation": {
				"codeDepositCost": "995600",
				"executionCost": "1032",
				"totalCost": "996632"
			},
			"external": {
				"addPerson(string,uint256)": "infinite",
				"createSimpleStorageContract()": "infinite",
				"listOfPeople(uint256)": "infinite",
				"nameToFavoriteNumber(string)": "infinite",
				"retrieve()": "2455",
				"simpleStorage()": "infinite",
				"store(uint256)": "22514"
			}
		},
		"methodIdentifiers": {
			"addPerson(string,uint256)": "6f760f41",
			"createSimpleStorageContract()": "1dda6541",
			"listOfPeople(uint256)": "2ebce631",
			"nameToFavoriteNumber(string)": "8bab8dd5",
			"retrieve()": "2e64cec1",
			"simpleStorage()": "6be0d6bf",
			"store(uint256)": "6057361d"
		}
	},
	"abi": [
		{
			"inputs": [
				{
					"internalType": "string",
					"name": "_name",
					"type": "string"
				},
				{
					"internalType": "uint256",
					"name": "_favoriteNumber",
					"type": "uint256"
				}
			],
			"name": "addPerson",
			"outputs": [],
			"stateMutability": "nonpayable",
			"type": "function"
		},
		{
			"inputs": [],
			"name": "createSimpleStorageContract",
			"outputs": [],
			"stateMutability": "nonpayable",
			"type": "function"
		},
		{
			"inputs": [
				{
					"internalType": "uint256",
					"name": "",
					"type": "uint256"
				}
			],
			"name": "listOfPeople",
			"outputs": [
				{
					"internalType": "uint256",
					"name": "favoriteNumber",
					"type": "uint256"
				},
				{
					"internalType": "string",
					"name": "name",
					"type": "string"
				}
			],
			"stateMutability": "view",
			"type": "function"
		},
		{
			"inputs": [
				{
					"internalType": "string",
					"name": "",
					"type": "string"
				}
			],
			"name": "nameToFavoriteNumber",
			"outputs": [
				{
					"internalType": "uint256",
					"name": "",
					"type": "uint256"
				}
			],
			"stateMutability": "view",
			"type": "function"
		},
		{
			"inputs": [],
			"name": "retrieve",
			"outputs": [
				{
					"internalType": "uint256",
					"name": "",
					"type": "uint256"
				}
			],
			"stateMutability": "view",
			"type": "function"
		},
		{
			"inputs": [],
			"name": "simpleStorage",
			"outputs": [
				{
					"internalType": "contract SimpleStorage",
					"name": "",
					"type": "address"
				}
			],
			"stateMutability": "view",
			"type": "function"
		},
		{
			"inputs": [
				{
					"internalType": "uint256",
					"name": "_favoriteNumber",
					"type": "uint256"
				}
			],
			"name": "store",
			"outputs": [],
			"stateMutability": "nonpayable",
			"type": "function"
		}
	]
}